{
  "_format": "hh-sol-artifact-1",
  "contractName": "Library",
  "sourceName": "contracts/Library.sol",
  "abi": [
    {
      "inputs": [],
      "name": "getValue",
      "outputs": [
        {
          "internalType": "uint256",
          "name": "",
          "type": "uint256"
        }
      ],
      "stateMutability": "view",
      "type": "function"
    },
    {
      "inputs": [],
      "name": "libraryValue",
      "outputs": [
        {
          "internalType": "uint256",
          "name": "",
          "type": "uint256"
        }
      ],
      "stateMutability": "view",
      "type": "function"
    },
    {
      "inputs": [
        {
          "internalType": "uint256",
          "name": "_value",
          "type": "uint256"
        }
      ],
      "name": "setValue",
      "outputs": [],
      "stateMutability": "nonpayable",
      "type": "function"
    }
  ],
  "bytecode": "0x608060405234801561001057600080fd5b5060bf8061001f6000396000f3fe6080604052348015600f57600080fd5b5060043610603c5760003560e01c806320965255146041578063415832591460575780635524107714605f575b600080fd5b6000545b60405190815260200160405180910390f35b604560005481565b606f606a3660046071565b600055565b005b600060208284031215608257600080fd5b503591905056fea2646970667358221220c4023685451c363e80fdb4a6405a150618bf0758a9cf4e3d66fe2d208dd3b9d964736f6c63430008180033",
  "linkReferences": {},
  "deployedLinkReferences": {}
}