{
  "_format": "hh-sol-artifact-1",
  "contractName": "Caller",
  "sourceName": "contracts/Caller.sol",
  "abi": [
    {
      "inputs": [
        {
          "internalType": "address",
          "name": "_libraryAddress",
          "type": "address"
        }
      ],
      "stateMutability": "nonpayable",
      "type": "constructor"
    },
    {
      "anonymous": false,
      "inputs": [
        {
          "indexed": false,
          "internalType": "uint256",
          "name": "libraryValue",
          "type": "uint256"
        },
        {
          "indexed": false,
          "internalType": "uint256",
          "name": "callerValue",
          "type": "uint256"
        }
      ],
      "name": "CallExecuted",
      "type": "event"
    },
    {
      "anonymous": false,
      "inputs": [
        {
          "indexed": false,
          "internalType": "uint256",
          "name": "libraryValue",
          "type": "uint256"
        },
        {
          "indexed": false,
          "internalType": "uint256",
          "name": "callerValue",
          "type": "uint256"
        }
      ],
      "name": "DelegateCallExecuted",
      "type": "event"
    },
    {
      "inputs": [],
      "name": "callerValue",
      "outputs": [
        {
          "internalType": "uint256",
          "name": "",
          "type": "uint256"
        }
      ],
      "stateMutability": "view",
      "type": "function"
    },
    {
      "inputs": [
        {
          "internalType": "uint256",
          "name": "_value",
          "type": "uint256"
        }
      ],
      "name": "executeCall",
      "outputs": [],
      "stateMutability": "nonpayable",
      "type": "function"
    },
    {
      "inputs": [
        {
          "internalType": "uint256",
          "name": "_value",
          "type": "uint256"
        }
      ],
      "name": "executeDelegateCall",
      "outputs": [],
      "stateMutability": "nonpayable",
      "type": "function"
    },
    {
      "inputs": [],
      "name": "getCallerValue",
      "outputs": [
        {
          "internalType": "uint256",
          "name": "",
          "type": "uint256"
        }
      ],
      "stateMutability": "view",
      "type": "function"
    },
    {
      "inputs": [],
      "name": "getLibraryValue",
      "outputs": [
        {
          "internalType": "uint256",
          "name": "",
          "type": "uint256"
        }
      ],
      "stateMutability": "view",
      "type": "function"
    },
    {
      "inputs": [],
      "name": "libraryContract",
      "outputs": [
        {
          "internalType": "contract Library",
          "name": "",
          "type": "address"
        }
      ],
      "stateMutability": "view",
      "type": "function"
    }
  ],
  "bytecode": "0x608060405234801561001057600080fd5b5060405161054538038061054583398101604081905261002f91610054565b600180546001600160a01b0319166001600160a01b0392909216919091179055610084565b60006020828403121561006657600080fd5b81516001600160a01b038116811461007d57600080fd5b9392505050565b6104b2806100936000396000f3fe608060405234801561001057600080fd5b50600436106100625760003560e01c80634342f10d146100675780635cf92b141461007c578063ce0769c514610093578063ddb8cb91146100be578063e7324a7c146100c7578063f7169afc146100cf575b600080fd5b61007a61007536600461041b565b6100e2565b005b6000545b6040519081526020015b60405180910390f35b6001546100a6906001600160a01b031681565b6040516001600160a01b03909116815260200161008a565b61008060005481565b610080610266565b61007a6100dd36600461041b565b6102d9565b600154604051602481018390526000916001600160a01b03169060440160408051601f198184030181529181526020820180516001600160e01b0316635524107760e01b179052516101349190610434565b6000604051808303816000865af19150503d8060008114610171576040519150601f19603f3d011682016040523d82523d6000602084013e610176565b606091505b50509050806101ba5760405162461bcd60e51b815260206004820152600b60248201526a10d85b1b0819985a5b195960aa1b60448201526064015b60405180910390fd5b60015460408051632096525560e01b815290517f0233e6c0efdd7e6d49e01d08a3443b09da34a1621d14fc70ebbdb2e49c9396c1926001600160a01b03169163209652559160048083019260209291908290030181865afa158015610223573d6000803e3d6000fd5b505050506040513d601f19601f820116820180604052508101906102479190610463565b6000546040805192835260208301919091520160405180910390a15050565b60015460408051632096525560e01b815290516000926001600160a01b03169163209652559160048083019260209291908290030181865afa1580156102b0573d6000803e3d6000fd5b505050506040513d601f19601f820116820180604052508101906102d49190610463565b905090565b600154604051602481018390526000916001600160a01b03169060440160408051601f198184030181529181526020820180516001600160e01b0316635524107760e01b1790525161032b9190610434565b600060405180830381855af49150503d8060008114610366576040519150601f19603f3d011682016040523d82523d6000602084013e61036b565b606091505b50509050806103b25760405162461bcd60e51b815260206004820152601360248201527211195b1959d85d1950d85b1b0819985a5b1959606a1b60448201526064016101b1565b60015460408051632096525560e01b815290517f49876e78d4329ba48bafc700b57c751249a3b991b7bc698cf16a16b3b500da99926001600160a01b03169163209652559160048083019260209291908290030181865afa158015610223573d6000803e3d6000fd5b60006020828403121561042d57600080fd5b5035919050565b6000825160005b81811015610455576020818601810151858301520161043b565b506000920191825250919050565b60006020828403121561047557600080fd5b505191905056fea2646970667358221220f7572f3421f5526d409c2cc2afad4ae40370411ff7de10c7d51c4eb79bbad17964736f6c63430008180033",
  "linkReferences": {},
  "deployedLinkReferences": {}
}