{
  "_format": "hh3-artifact-1",
  "contractName": "MintableERC20",
  "sourceName": "contracts/MintableERC20.sol",
  "abi": [
    {
      "inputs": [
        {
          "internalType": "string",
          "name": "_name",
          "type": "string"
        },
        {
          "internalType": "string",
          "name": "_symbol",
          "type": "string"
        }
      ],
      "stateMutability": "nonpayable",
      "type": "constructor"
    },
    {
      "inputs": [
        {
          "internalType": "address",
          "name": "spender",
          "type": "address"
        },
        {
          "internalType": "uint256",
          "name": "allowance",
          "type": "uint256"
        },
        {
          "internalType": "uint256",
          "name": "needed",
          "type": "uint256"
        }
      ],
      "name": "ERC20InsufficientAllowance",
      "type": "error"
    },
    {
      "inputs": [
        {
          "internalType": "address",
          "name": "sender",
          "type": "address"
        },
        {
          "internalType": "uint256",
          "name": "balance",
          "type": "uint256"
        },
        {
          "internalType": "uint256",
          "name": "needed",
          "type": "uint256"
        }
      ],
      "name": "ERC20InsufficientBalance",
      "type": "error"
    },
    {
      "inputs": [
        {
          "internalType": "address",
          "name": "approver",
          "type": "address"
        }
      ],
      "name": "ERC20InvalidApprover",
      "type": "error"
    },
    {
      "inputs": [
        {
          "internalType": "address",
          "name": "receiver",
          "type": "address"
        }
      ],
      "name": "ERC20InvalidReceiver",
      "type": "error"
    },
    {
      "inputs": [
        {
          "internalType": "address",
          "name": "sender",
          "type": "address"
        }
      ],
      "name": "ERC20InvalidSender",
      "type": "error"
    },
    {
      "inputs": [
        {
          "internalType": "address",
          "name": "spender",
          "type": "address"
        }
      ],
      "name": "ERC20InvalidSpender",
      "type": "error"
    },
    {
      "anonymous": false,
      "inputs": [
        {
          "indexed": true,
          "internalType": "address",
          "name": "owner",
          "type": "address"
        },
        {
          "indexed": true,
          "internalType": "address",
          "name": "spender",
          "type": "address"
        },
        {
          "indexed": false,
          "internalType": "uint256",
          "name": "value",
          "type": "uint256"
        }
      ],
      "name": "Approval",
      "type": "event"
    },
    {
      "anonymous": false,
      "inputs": [
        {
          "indexed": true,
          "internalType": "address",
          "name": "from",
          "type": "address"
        },
        {
          "indexed": true,
          "internalType": "address",
          "name": "to",
          "type": "address"
        },
        {
          "indexed": false,
          "internalType": "uint256",
          "name": "value",
          "type": "uint256"
        }
      ],
      "name": "Transfer",
      "type": "event"
    },
    {
      "inputs": [
        {
          "internalType": "address",
          "name": "owner",
          "type": "address"
        },
        {
          "internalType": "address",
          "name": "spender",
          "type": "address"
        }
      ],
      "name": "allowance",
      "outputs": [
        {
          "internalType": "uint256",
          "name": "",
          "type": "uint256"
        }
      ],
      "stateMutability": "view",
      "type": "function"
    },
    {
      "inputs": [
        {
          "internalType": "address",
          "name": "spender",
          "type": "address"
        },
        {
          "internalType": "uint256",
          "name": "value",
          "type": "uint256"
        }
      ],
      "name": "approve",
      "outputs": [
        {
          "internalType": "bool",
          "name": "",
          "type": "bool"
        }
      ],
      "stateMutability": "nonpayable",
      "type": "function"
    },
    {
      "inputs": [
        {
          "internalType": "address",
          "name": "account",
          "type": "address"
        }
      ],
      "name": "balanceOf",
      "outputs": [
        {
          "internalType": "uint256",
          "name": "",
          "type": "uint256"
        }
      ],
      "stateMutability": "view",
      "type": "function"
    },
    {
      "inputs": [
        {
          "internalType": "address",
          "name": "_address",
          "type": "address"
        }
      ],
      "name": "canMint",
      "outputs": [
        {
          "internalType": "bool",
          "name": "",
          "type": "bool"
        }
      ],
      "stateMutability": "view",
      "type": "function"
    },
    {
      "inputs": [],
      "name": "decimals",
      "outputs": [
        {
          "internalType": "uint8",
          "name": "",
          "type": "uint8"
        }
      ],
      "stateMutability": "view",
      "type": "function"
    },
    {
      "inputs": [],
      "name": "interval",
      "outputs": [
        {
          "internalType": "uint256",
          "name": "",
          "type": "uint256"
        }
      ],
      "stateMutability": "view",
      "type": "function"
    },
    {
      "inputs": [
        {
          "internalType": "address",
          "name": "",
          "type": "address"
        }
      ],
      "name": "lastMintTime",
      "outputs": [
        {
          "internalType": "uint256",
          "name": "",
          "type": "uint256"
        }
      ],
      "stateMutability": "view",
      "type": "function"
    },
    {
      "inputs": [],
      "name": "mintToken",
      "outputs": [],
      "stateMutability": "nonpayable",
      "type": "function"
    },
    {
      "inputs": [],
      "name": "name",
      "outputs": [
        {
          "internalType": "string",
          "name": "",
          "type": "string"
        }
      ],
      "stateMutability": "view",
      "type": "function"
    },
    {
      "inputs": [],
      "name": "owner",
      "outputs": [
        {
          "internalType": "address",
          "name": "",
          "type": "address"
        }
      ],
      "stateMutability": "view",
      "type": "function"
    },
    {
      "inputs": [
        {
          "internalType": "address",
          "name": "_target",
          "type": "address"
        },
        {
          "internalType": "uint256",
          "name": "_amount",
          "type": "uint256"
        }
      ],
      "name": "ownerMint",
      "outputs": [],
      "stateMutability": "nonpayable",
      "type": "function"
    },
    {
      "inputs": [
        {
          "internalType": "uint256",
          "name": "_newInterval",
          "type": "uint256"
        }
      ],
      "name": "setInterval",
      "outputs": [],
      "stateMutability": "nonpayable",
      "type": "function"
    },
    {
      "inputs": [],
      "name": "symbol",
      "outputs": [
        {
          "internalType": "string",
          "name": "",
          "type": "string"
        }
      ],
      "stateMutability": "view",
      "type": "function"
    },
    {
      "inputs": [],
      "name": "totalSupply",
      "outputs": [
        {
          "internalType": "uint256",
          "name": "",
          "type": "uint256"
        }
      ],
      "stateMutability": "view",
      "type": "function"
    },
    {
      "inputs": [
        {
          "internalType": "address",
          "name": "to",
          "type": "address"
        },
        {
          "internalType": "uint256",
          "name": "value",
          "type": "uint256"
        }
      ],
      "name": "transfer",
      "outputs": [
        {
          "internalType": "bool",
          "name": "",
          "type": "bool"
        }
      ],
      "stateMutability": "nonpayable",
      "type": "function"
    },
    {
      "inputs": [
        {
          "internalType": "address",
          "name": "from",
          "type": "address"
        },
        {
          "internalType": "address",
          "name": "to",
          "type": "address"
        },
        {
          "internalType": "uint256",
          "name": "value",
          "type": "uint256"
        }
      ],
      "name": "transferFrom",
      "outputs": [
        {
          "internalType": "bool",
          "name": "",
          "type": "bool"
        }
      ],
      "stateMutability": "nonpayable",
      "type": "function"
    }
  ],
  "bytecode": "0x608060405234801561000f575f5ffd5b50604051610e2b380380610e2b83398101604081905261002e91610285565b8181600361003c838261036e565b506004610049828261036e565b5050506100663369152d02c7e14af680000061008560201b60201c565b5050600780546001600160a01b03191633179055610e1060065561044d565b6001600160a01b0382166100b35760405163ec442f0560e01b81525f60048201526024015b60405180910390fd5b6100be5f83836100c2565b5050565b6001600160a01b0383166100ec578060025f8282546100e19190610428565b9091555061015c9050565b6001600160a01b0383165f908152602081905260409020548181101561013e5760405163391434e360e21b81526001600160a01b038516600482015260248101829052604481018390526064016100aa565b6001600160a01b0384165f9081526020819052604090209082900390555b6001600160a01b03821661017857600280548290039055610196565b6001600160a01b0382165f9081526020819052604090208054820190555b816001600160a01b0316836001600160a01b03167fddf252ad1be2c89b69c2b068fc378daa952ba7f163c4a11628f55a4df523b3ef836040516101db91815260200190565b60405180910390a3505050565b634e487b7160e01b5f52604160045260245ffd5b5f82601f83011261020b575f5ffd5b81516001600160401b03811115610224576102246101e8565b604051601f8201601f19908116603f011681016001600160401b0381118282101715610252576102526101e8565b604052818152838201602001851015610269575f5ffd5b8160208501602083015e5f918101602001919091529392505050565b5f5f60408385031215610296575f5ffd5b82516001600160401b038111156102ab575f5ffd5b6102b7858286016101fc565b602085015190935090506001600160401b038111156102d4575f5ffd5b6102e0858286016101fc565b9150509250929050565b600181811c908216806102fe57607f821691505b60208210810361031c57634e487b7160e01b5f52602260045260245ffd5b50919050565b601f82111561036957805f5260205f20601f840160051c810160208510156103475750805b601f840160051c820191505b81811015610366575f8155600101610353565b50505b505050565b81516001600160401b03811115610387576103876101e8565b61039b8161039584546102ea565b84610322565b6020601f8211600181146103cd575f83156103b65750848201515b5f19600385901b1c1916600184901b178455610366565b5f84815260208120601f198516915b828110156103fc57878501518255602094850194600190920191016103dc565b508482101561041957868401515f19600387901b60f8161c191681555b50505050600190811b01905550565b8082018082111561044757634e487b7160e01b5f52601160045260245ffd5b92915050565b6109d18061045a5f395ff3fe608060405234801561000f575f5ffd5b50600436106100fb575f3560e01c80636aa71d181161009357806395d89b411161006357806395d89b411461021f578063a9059cbb14610227578063c2ba47441461023a578063dd62ed3e1461024d575f5ffd5b80636aa71d18146101a457806370a08231146101c35780638da5cb5b146101eb578063947a36fb14610216575f5ffd5b806322a90082116100ce57806322a900821461015c57806323b872dd1461016f578063313ce56714610182578063484b973c14610191575f5ffd5b806306fdde03146100ff578063095ea7b31461011d57806318160ddd146101405780632004ffd914610152575b5f5ffd5b610107610285565b604051610114919061082a565b60405180910390f35b61013061012b36600461087a565b610315565b6040519015158152602001610114565b6002545b604051908152602001610114565b61015a61032e565b005b61015a61016a3660046108a2565b6103e9565b61013061017d3660046108b9565b610434565b60405160128152602001610114565b61015a61019f36600461087a565b610457565b6101446101b23660046108f3565b60056020525f908152604090205481565b6101446101d13660046108f3565b6001600160a01b03165f9081526020819052604090205490565b6007546101fe906001600160a01b031681565b6040516001600160a01b039091168152602001610114565b61014460065481565b6101076104ab565b61013061023536600461087a565b6104ba565b6101306102483660046108f3565b6104c7565b61014461025b366004610913565b6001600160a01b039182165f90815260016020908152604080832093909416825291909152205490565b60606003805461029490610944565b80601f01602080910402602001604051908101604052809291908181526020018280546102c090610944565b801561030b5780601f106102e25761010080835404028352916020019161030b565b820191905f5260205f20905b8154815290600101906020018083116102ee57829003601f168201915b5050505050905090565b5f33610322818585610513565b60019150505b92915050565b335f9081526005602052604090205415806103635750600654335f90815260056020526040902054610360919061097c565b42115b6103c35760405162461bcd60e51b815260206004820152602660248201527f596f75206e65656420746f207761697420616e20686f7572206265747765656e604482015265206d696e747360d01b60648201526084015b60405180910390fd5b6103d63368056bc75e2d63100000610525565b335f908152600560205260409020429055565b6007546001600160a01b0316331461042f5760405162461bcd60e51b81526020600482015260096024820152682737ba1037bbb732b960b91b60448201526064016103ba565b600655565b5f33610441858285610559565b61044c8585856105d5565b506001949350505050565b6007546001600160a01b0316331461049d5760405162461bcd60e51b81526020600482015260096024820152682737ba1037bbb732b960b91b60448201526064016103ba565b6104a78282610525565b5050565b60606004805461029490610944565b5f336103228185856105d5565b6001600160a01b0381165f90815260056020526040812054158061032857506006546001600160a01b0383165f9081526005602052604090205461050b919061097c565b421192915050565b6105208383836001610632565b505050565b6001600160a01b03821661054e5760405163ec442f0560e01b81525f60048201526024016103ba565b6104a75f8383610704565b6001600160a01b038381165f908152600160209081526040808320938616835292905220545f198110156105cf57818110156105c157604051637dc7a0d960e11b81526001600160a01b038416600482015260248101829052604481018390526064016103ba565b6105cf84848484035f610632565b50505050565b6001600160a01b0383166105fe57604051634b637e8f60e11b81525f60048201526024016103ba565b6001600160a01b0382166106275760405163ec442f0560e01b81525f60048201526024016103ba565b610520838383610704565b6001600160a01b03841661065b5760405163e602df0560e01b81525f60048201526024016103ba565b6001600160a01b03831661068457604051634a1406b160e11b81525f60048201526024016103ba565b6001600160a01b038085165f90815260016020908152604080832093871683529290522082905580156105cf57826001600160a01b0316846001600160a01b03167f8c5be1e5ebec7d5bd14f71427d1e84f3dd0314c0f7b2291e5b200ac8c7c3b925846040516106f691815260200190565b60405180910390a350505050565b6001600160a01b03831661072e578060025f828254610723919061097c565b9091555061079e9050565b6001600160a01b0383165f90815260208190526040902054818110156107805760405163391434e360e21b81526001600160a01b038516600482015260248101829052604481018390526064016103ba565b6001600160a01b0384165f9081526020819052604090209082900390555b6001600160a01b0382166107ba576002805482900390556107d8565b6001600160a01b0382165f9081526020819052604090208054820190555b816001600160a01b0316836001600160a01b03167fddf252ad1be2c89b69c2b068fc378daa952ba7f163c4a11628f55a4df523b3ef8360405161081d91815260200190565b60405180910390a3505050565b602081525f82518060208401528060208501604085015e5f604082850101526040601f19601f83011684010191505092915050565b80356001600160a01b0381168114610875575f5ffd5b919050565b5f5f6040838503121561088b575f5ffd5b6108948361085f565b946020939093013593505050565b5f602082840312156108b2575f5ffd5b5035919050565b5f5f5f606084860312156108cb575f5ffd5b6108d48461085f565b92506108e26020850161085f565b929592945050506040919091013590565b5f60208284031215610903575f5ffd5b61090c8261085f565b9392505050565b5f5f60408385031215610924575f5ffd5b61092d8361085f565b915061093b6020840161085f565b90509250929050565b600181811c9082168061095857607f821691505b60208210810361097657634e487b7160e01b5f52602260045260245ffd5b50919050565b8082018082111561032857634e487b7160e01b5f52601160045260245ffdfea264697066735822122012a6303f2f009c11155fed381f2af28ad41c66a01b2b132ddf0e159555c186ed64736f6c634300081c0033",
  "linkReferences": {},
  "deployedLinkReferences": {},
  "immutableReferences": {},
  "inputSourceName": "project/contracts/MintableERC20.sol",
  "buildInfoId": "solc-0_8_28-f0254897e2bf22ed9d5caf002ab39331ef667f1e"
}